:020000040800F2
:10000000400C002091010008E71D00082F1B00088C
:10001000E51D0008BB050008FD23000800000000E6
:100020000000000000000000000000002D1E00087D
:10003000FF05000800000000E91D00082F1E000851
:10004000AB010008AB010008AB010008AB010008E0
:10005000AB010008AB010008AB010008AB010008D0
:10006000AB010008AB010008AB010008AB010008C0
:10007000AB010008BD050008AB010008C905000878
:10008000AB010008AB010008AB010008AB010008A0
:10009000AB010008AB010008AB010008AB01000890
:1000A000AB010008AB010008AB010008AB01000880
:1000B000951E0008AB010008AB010008AB01000869
:1000C000AB010008AB010008AB010008AB01000860
:1000D000AB010008C1230008D9230008E52300086C
:1000E000AB010008AB010008AB01000800F002F80A
:1000F00000F03FF80AA090E8000C82448344AAF183
:100100000107DA4501D100F034F8AFF2090EBAE880
:100110000F0013F0010F18BFFB1A43F0010318473B
:10012000642E0000842E0000103A24BF78C878C1E5
:10013000FAD8520724BF30C830C144BF04680C60ED
:10014000704700000023002400250026103A28BF35
:1001500078C1FBD8520728BF30C148BF0B60704739
:10016000642900F07D80002070471FB51FBD10B5C9
:1001700010BD00F0E8F91146FFF7F7FF02F060FA52
:1001800000F006FA03B4FFF7F2FF03BC00F00EFA2A
:100190000948804709480047FEE7FEE7FEE7FEE71B
:1001A000FEE7FEE7FEE7FEE7FEE7FEE70448054957
:1001B000054A064B70470000911E0008ED0000083C
:1001C00040060020400C002040080020400800208D
:1001D0000FB41CB5074B06AA7B44694600900598EE
:1001E00000F067F90020694600F076F91CBC5DF864
:1001F00014FB0000FD0200002DE9F0410E4604460C
:10020000002020622046E168884730B3252805D0C9
:10021000D4E901219047206A401CF2E7E1682046BA
:1002200000278847050018D0A5F14100192802D8F9
:1002300020354FF400673246294620462760FFF7F5
:100240008FFF40B1012804D0F61D26F007060836BE
:10025000D8E7361DD6E72846DAE7206ABDE8F08100
:100260002DE9F0410646002410687529314616A58F
:1002700010D0AFF30080002802DA404213A507E057
:1002800031688A0701D512A502E0490704D511A5F6
:10029000012401E0AFF3008000210A2206F12407C7
:1002A00009E0B0FBF2FCB0FBF2F302FB1C003030C3
:1002B00078541846491C0028F3D123462A46304674
:1002C000BDE8F04100F096B8000000002D000000ED
:1002D0002B0000002000000010B5431C02E010F8C5
:1002E000011B71B18107FAD14FF0013202C88C1A9B
:1002F0008C4314EAC211F9D0C01A0A0603D0C01EFA
:1003000010BDC01A10BD0A0401D0801E10BD090224
:10031000FCD0401E10BD032A40F2308010F0030CC8
:1003200000F0158011F8013BBCF1020F624498BF48
:1003300011F801CB00F8013B38BF11F8013BA2F1E5
:10034000040298BF00F801CB38BF00F8013B11F060
:10035000030300F0C680083AC0F0088051F8043B5F
:10036000083A51F804CBA0E80810F5E7121D5CBF6D
:1003700051F8043B40F8043BAFF30080D20724BFA0
:1003800011F8013B11F801CB48BF11F8012B24BF34
:1003900000F8013B00F801CB48BF00F8012B704783
:1003A0004FF0000200B5134694469646203922BF0E
:1003B000A0E80C50A0E80C50B1F12001BFF4F7AF59
:1003C000090728BFA0E80C5048BF0CC05DF804EB3B
:1003D000890028BF40F8042B08BF704748BF20F8A9
:1003E000022B11F0804F18BF00F8012B70477047A7
:1003F000704770472DE9F0470D46994692460446EE
:1004000000F124080168880604D5E06921F0100194
:10041000216000E00120A84201DD471B00E0002729
:10042000A1697A1902EB0900081AA0612078C006B8
:1004300002D42046AFF30080002608E0D4E9012171
:100440001AF806009047206A401C761C20624E4530
:10045000F4DB2078C0060AD52046AFF3008006E022
:10046000D4E9012130209047206A401C2062381EC8
:10047000A7F10107F4DC07E0D4E9012118F8050031
:100480009047206A401C2062281EA5F10105F3DC7C
:100490002046AFF300802078000602D50220BDE898
:1004A000F0870120FBE7000001694A1C026108781F
:1004B000704700B58FB0CDE90131002105910549A4
:1004C0007944CDE9031011466846FFF795FE0FB059
:1004D00000BD0000E5FFFFFF0A6802F8010B0A609B
:1004E000704710B5203AC0F00B80B1E81850203AA0
:1004F000A0E81850B1E81850A0E81850BFF4F5AFC4
:100500005FEA027C24BFB1E81850A0E8185044BF4D
:1005100018C918C0BDE810405FEA827C24BF51F8BA
:10052000043B40F8043B08BF7047D20728BF31F8AE
:10053000023B48BF11F8012B28BF20F8023B48BFFF
:1005400000F8012B7047754600F02CF8AE46050008
:100550006946534620F00700854618B020B5FFF7DE
:1005600025FEBDE820404FF000064FF000074FF099
:1005700000084FF0000B21F00701AC46ACE8C009C1
:10058000ACE8C009ACE8C009ACE8C0098D467047CA
:1005900010B50446AFF300802046BDE81040FFF7D9
:1005A000F1BD000000487047DC050020014918201B
:1005B000ABBEFEE7260002007047FEE7014800F0F0
:1005C00093B8000098010020014800F08DB80000A9
:1005D0005401002030B590F840500124AC40C56B68
:1005E0006C60046863604368102B036803D09960F3
:1005F0000068C26030BD9A600068C16030BD70475D
:1006000072B6FEE710B590F821100022022905D03D
:100610000421816380F82020012010BD01680B684F
:1006200023F00E030B6001680B6823F001030B60DD
:1006300090F84030C46B012101FA03F3636080F845
:10064000211080F82020104610BD000010B590F851
:1006500021100024022903D00421816301243DE0FC
:1006600001680A6822F00E020A6001680A6822F036
:1006700001020A601A4A0168914201D1012121E078
:10068000174A1432914201D110211BE0144A28323A
:10069000914201D1891515E0114A3C32914201D1B4
:1006A00089140FE00E4A5032914202D14FF480314A
:1006B00008E00B4A6432914202D14FF4801101E00C
:1006C0004FF08071064A083A5160012180F82110EC
:1006D000002180F82010416B01B18847204610BDF1
:1006E00008000240806B70472DE9F05FC16B0C6819
:1006F00001680B68D0F840C0042202FA0CF2494DA0
:10070000DFF824A1494E4A4FDFF828B1DFF828E18D
:1007100022422CD05A072AD50A68920603D40A68C6
:1007200022F004020A600168A94201D1042219E002
:10073000514501D1402215E0B14202D14FF480620F
:1007400010E0B94202D14FF480420BE0594502D18A
:100750004FF4802206E0714502D14FF4800201E09F
:100760004FF080622F4908394A60C16A3BE04FF080
:10077000020808FA0CF818EA040F4FF000094FF0CD
:10078000010235D05FEA837832D50B689B0605D429
:100790000B6823F00A030B6080F821200168A9424E
:1007A00001D1022219E0514501D1202215E0B142C8
:1007B00002D14FF4007210E0B94202D14FF400525E
:1007C0000BE0594502D14FF4003206E0714502D1E9
:1007D0004FF4001201E04FF00072124908394A60EC
:1007E00080F82090816A00291AD0BDE8F05F0847A0
:1007F000082505FA0CF5254212D01B0710D50B6809
:1008000023F00E030B6090F84010C36B02FA01F165
:100810005960826380F8212080F82090016BE2E724
:10082000BDE8F09F080002401C000240300002407A
:1008300044000240580002406C00024030B528B32A
:1008400008C8134914221944B1FBF2F18900C163AD
:1008500010498163022141771A6843F6F0718A4397
:10086000D0E900142143D0E902452C432143046917
:1008700021434469214384692143114319600021C4
:100880004163012242770177084630BD012030BD27
:10089000F8FFFDBF0000024070B5044690F820004C
:1008A000002501280CD0012084F8200094F8216054
:1008B0000020012E06D084F820000225284670BDB5
:1008C000022070BD022684F82160A06320680668BB
:1008D00026F0010606602046FFF77CFEE06A00284D
:1008E0002068016802D041F00E0106E021F0040109
:1008F00001602068016841F00A0101602068016818
:1009000041F001010160D9E770B5044600F004F937
:100910000546601C02D004480078044400F0FCF84E
:10092000401BA042FAD370BD000000202DE9F84F13
:10093000DFF8B8910024A9F1040B23460F2709F131
:10094000040AABF1040EC9E00125A5402A40AA42E1
:100950007DD1674ED1F804C0ACEB0608B44532D067
:1009600014DCBCF1030F3AD009DCBCF1000F2AD033
:10097000BCF1010F1CD0BCF1020F31D11DE0BCF164
:10098000110F17D0BCF1120F2AD119E0B8F5881F4A
:1009900019D006DCB8F5803F15D0B8F5801F1FD1FF
:1009A00011E0B8F5001F0ED0B8F5041F18D10AE009
:1009B000CB6815E0CB681B1D12E0CB6808330FE055
:1009C000CB680C330CE08B682BB1012B4FF0080384
:1009D00003D0456104E0042302E0056100E0002348
:1009E000FF2A01D8064601E000F104064FEA84051B
:1009F00001D9A5F12005D6F8008007FA05FC28EA00
:100A00000C0803FA05F548EA0508C6F800804D68A9
:100A1000ED0062D5374DAE6946F00106AE61AD69B5
:100A200024F0030605F001050095334D06EB050C97
:100A3000DCF80850A607360F07FA06F825EA08057D
:100A4000DFF8B880404503D14FF0000817E044E0DC
:100A5000DFF8AC80404502D14FF001080FE0DFF82D
:100A6000A480404502D14FF0020808E0DFF89880EA
:100A7000404502D14FF0030801E04FF0040808FAA6
:100A800006F848EA0508CCF808804D68D9F80060F7
:100A9000ED024D4601D5164300E096432E604D68A9
:100AA000DAF80060AD02554601D5164300E09643E2
:100AB0002E604D68DBF80060AD035D4601D516433E
:100AC00000E096432E604D68DEF80060ED03754649
:100AD00001D5164300E096432E60641C0D682A463B
:100AE000E5407FF431AFBDE8F88F00000804014015
:100AF00000001110001002400000014000080140F9
:100B0000000C014000100140001401400AB10161D5
:100B100070470904FBE70000014880687047000047
:100B2000000000200248816802781144816070470B
:100B300000000020074810B5016841F01001016075
:100B4000032000F075F80F2000F006F800F024F8FC
:100B5000002010BD0020024070B50D4D04464FF43A
:100B60007A712878B1FBF0F00A490968B1FBF0F01E
:100B700000F0DCFA48B9102C07D200222146501EA2
:100B800000F036F800206C6070BD012070BD0000E0
:100B9000000000200C0000200C4808B5816941F0DD
:100BA00001018161816901F001010091C16941F098
:100BB0008051C161C06900F08050009004484168D4
:100BC00021F0E06141F00071416008BD0010024079
:100BD00000000140002809DB00F01F0201219140C4
:100BE0004009800000F1E020C0F8001170470000CB
:100BF000F0B40E4B1B680C46C3F30223C3F1070588
:100C0000042D00D90425191D072901D2002300E075
:100C1000DB1E012606FA05F1491E214099409E403F
:100C2000761E16403143F0BC01F0E9BB0CED00E04C
:100C3000064900F0070208684FF6FF03184040EA33
:100C40000220034A10430860704700000CED00E0EA
:100C50000000FA052DE9F0470F46050061D0434E2C
:100C6000306800F00700B84209D2306820F0070071
:100C700038433060306800F00700B84251D128682E
:100C80003B4C810712D5400703D5606840F4E06013
:100C900060602878000703D5606840F460506060A9
:100CA0006068A96820F0F000084360602878C007F9
:100CB00028D06868012810D02168022810D0890740
:100CC00000292EDA616821F0030101436160FFF71A
:100CD00023FF804641F288390DE021688903EFE760
:100CE0008901EDE7FFF718FFA0EB0801494502D99C
:100CF0000320BDE8F0876068696800F00C00B0EB85
:100D0000810FEFD1306800F00700B8420BD930688E
:100D100020F0070038433060306800F00700B84228
:100D200001D00120E5E72878400705D56068E9682B
:100D300020F4E060084360602878000706D560680A
:100D4000296920F4605040EAC100606000F038F882
:100D50006168084AC1F30311515CC8400649086044
:100D600006480068FFF7F8FE0020C2E700200240B6
:100D7000001002406A2F00080C0000200400002030
:100D80000448054900684968044AC1F30221515CDE
:100D9000C84070470C000020001002407A2F000865
:100DA0000448054900684968044AC1F3C221515CFE
:100DB000C84070470C000020001002407A2F000845
:100DC0000E4A51680E4801F00C03042B11D0082B79
:100DD0000FD10C48C1F38343C903C05C0AD55168E5
:100DE000084AC1F34041921E515C054A5043B0FB92
:100DF000F1F070470449484370470000001002407A
:100E000000127A005A2F000800093D002DE9F84F22
:100E1000040070D02078C04DC00749D06868C0F386
:100E20008100012807D06868C0F38100022809D139
:100E30006868C00306D52868800339D56068002833
:100E4000E7D035E06068B0F5803F0BD010B1B0F569
:100E5000A02F11D0286820F480302860286820F462
:100E6000802002E0286840F480302860606890B1FB
:100E7000FFF752FE06460AE0286840F4802028600A
:100E8000F0E700BFFFF748FE801B642873D828688E
:100E90008003F7D50CE0FFF73FFE064605E000BFF4
:100EA000FFF73AFE801B6428F0D828688003F7D447
:100EB00020789A4E80074FF001094FF0000839D58D
:100EC000686810F00C0F07D06868C0F38100022832
:100ED00009D16868C00306D42868800714D5206942
:100EE000012808D110E02069B0B1C6F80090FFF7E2
:100EF00013FE074605E00AE1FFF70EFEC01B0228BD
:100F0000C4D828688007F7D52868616920F0F80000
:100F100040EAC10028600DE0C6F80080FFF7FCFD44
:100F2000074604E0FFF7F8FDC01B022823D8286815
:100F30008007F7D4207800072CD57948A169D9B16A
:100F4000C0F80090FFF7E8FD074604E0FFF7E4FD76
:100F5000C01B02280FD8686A8007F7D571484FF484
:100F6000FA510068B0FBF1F0009000BF0098411EFC
:100F70000091FAD20EE080E0C0F80080FFF7CCFDCF
:100F8000074604E0FFF7C8FDC01B022875D8686A51
:100F90008007F7D42078400760D5E8690027C000B3
:100FA00008D4E86940F08050E861E869012700F062
:100FB000805000905C480168C90513D401688346DD
:100FC00041F480710160FFF7A7FD824606E000BF93
:100FD000FFF7A2FDA0EB0A0064284ED8DBF8000062
:100FE000C005F5D5E06801280AD008B1052813D05E
:100FF000286A20F001002862286A20F0040002E03C
:10100000286A40F001002862E06841F2883B98B10C
:10101000FFF782FD82460BE0286A40F00400286258
:10102000EEE700BFFFF778FDA0EB0A0159455AD85B
:10103000286A8007F6D50CE0FFF76EFD824605E0D2
:10104000FFF76AFDA0EB0A0159454CD8286A8007D2
:10105000F6D41FB1E86920F08050E861E06988B3F8
:101060006968C1F38101022944D00228C6F8608072
:1010700004D0FFF751FD044638E034E0FFF74CFDA3
:10108000074604E0FFF748FDC01B02282BD828685C
:101090008001F7D4206AB0F5803F05D16868A16867
:1010A00020F4003008436860D4E908010843696807
:1010B00021F4741108436860C6F86090FFF72CFDB6
:1010C000044606E025E000BFFFF726FD001B0228CE
:1010D00009D828688001F7D51BE000BFFFF71CFD89
:1010E000001B022802D90320BDE8F88F2868800180
:1010F000F4D40EE00128F7D06868226A00F4803149
:10110000914204D1616A00F47010884201D001203C
:10111000EAE70020E8E70000001002400000424239
:10112000800442420C0000200070004010B5401EB8
:10113000B0F1807F01D3012010BD4FF0E024606149
:101140000F21601701F05BF90020A06107202061EA
:10115000002010BD7047704770B590F83C20012A00
:1011600026D0012480F83C40022280F83D2003680C
:101170005A689D6822F070060A6832435A600D4B27
:1011800002689A4208D0B2F1804F05D00A4B9A42C9
:1011900002D00A4B9A4204D1496825F080031943D2
:1011A000916080F83D40002180F83C10084670BDF9
:1011B000022070BD002C01400004004000080040E7
:1011C00010B5040003D094F83D0010B107E00120F1
:1011D00010BD002084F83C00204600F01FF80220DB
:1011E00084F83D00211D206800F060FE012084F895
:1011F000460084F83E0084F83F0084F8400084F8FC
:10120000410084F8420084F8430084F8440084F8E4
:10121000450084F83D00002010BD000008B50068BE
:10122000B0F1804F12D10A48C16941F00101C1619A
:10123000C069002200F00100009001211C20FFF78E
:10124000D7FCBDE808401C20FFF7C4BC08BD000067
:101250000010024090F83D10012901D00120704794
:10126000022180F83D1000680B49884208D0B0F197
:10127000804F05D00949884202D00949884204D1EB
:10128000816801F00701062903D0016841F00101DE
:101290000160002070470000002C01400004004065
:1012A000000800400168CA6822F00102CA600168B3
:1012B0000A6A41F211131A4207D10A6A9B101A42B4
:1012C00003D10A6822F001020A60012180F83D1072
:1012D0000020704770B5044690F83C0000250128B6
:1012E00017D0012684F83C60022084F83D00206875
:1012F000826822F0770222F47F42826008685028D8
:1013000038D00DDC20284FD005DC90B3102811D147
:101310004AE0022070BD302846D040280AD13BE088
:1013200060282FD070280DD0B0F5805F03D0B0F5C5
:10133000005F12D0012584F83D60002084F83C0055
:10134000284670BDCB68D1E90121206800F0EAFD94
:101350002068816841F0770109E0CB68D1E901217B
:10136000206800F0DFFD2068816841F480418160E1
:10137000E1E719E0CA684968206800F0E5FD5021FE
:10138000206806E0CA684968206800F0EEFD602128
:10139000206800F0D1FDCEE7CA684968206800F0F7
:1013A000D3FD40212068F4E7226801461046F0E7AB
:1013B00070472DE9F04104460068C66805694FF0A2
:1013C0000007A90713D5B10711D5F91E0161012046
:1013D0002077206880698007204602D0FFF7E8FF69
:1013E00004E000F07EF8204600F07CF827776807DC
:1013F00016D5700714D521686FF00400086102202B
:1014000020772068806910F4407F204602D0FFF7E3
:10141000CFFF04E000F065F8204600F063F827777E
:10142000280715D5300713D521686FF0080008612B
:10143000042020772068C0698007204602D0FFF78B
:10144000B7FF04E000F04DF8204600F04BF8277796
:10145000E80616D5F00614D521686FF01000086173
:10146000082020772068C06910F4407F204602D011
:10147000FFF79EFF04E000F034F8204600F032F859
:101480002777E80708D0F00706D021686FF0010041
:101490000861204600F027F8280608D5300606D552
:1014A00021686FF0800008612046FFF753FE680650
:1014B00008D5700606D521686FF040000861204607
:1014C00000F012F8A8060AD5B00608D521686FF01A
:1014D000200008612046BDE8F041FFF73CBEBDE8B2
:1014E000F0817047704770477047704770B5044689
:1014F00020680C3050E8001F21F4907140E8001281
:10150000002AF5D12068143050E8001F21F00101B5
:1015100040E80012002AF5D1206B012809D120688B
:101520000C3050E8001F21F0100140E80012002AA2
:10153000F5D1206840694FF00005400615D52068B8
:10154000143050E8001F21F0400140E80012002A4A
:10155000F5D1E06B48B14563E06BFFF753F820B17C
:10156000E06BFFF7BFF8202806D0E585202084F83F
:1015700042002563002070BD10206064032070BD10
:1015800070470000F8B5016804460868CA684B69EE
:1015900010F00F0F4FF0000559D003F0010602F4D0
:1015A0009077374365D0C10705D0D10503D5616C6D
:1015B00041F001016164410705D5D90703D0616C91
:1015C00041F002016164810705D5D90703D0616C40
:1015D00041F004016164010707D502F020013143A5
:1015E00003D0616C41F008016164616C00293AD05C
:1015F000800604D5900602D5204600F0A2FD2068A2
:101600004069616CC0F38010090700D460B32046C4
:1016100000F062FD20684069400621D52068143042
:1016200050E8001F21F0400140E80012002AF5D1E7
:10163000E06BA8B16D494163E06BFFF707F8002844
:1016400011D0E06B416B01B0BDE8F0400847830664
:101650000FD593060DD52046BDE8F84000F071BDCA
:101660002046FFF78DFFF8BD2046FFF789FF656430
:10167000F8BD266B2023012E7CD1C6067AD5D6066E
:1016800078D508684868009048694FF0020640061F
:1016900040D5E16B086840680004000CE8D0A28DDA
:1016A0008242E5D9E085886920282DD020680C3059
:1016B00050E8001F21F4807140E80012002AF5D1A3
:1016C0002068143050E8001F21F0010140E80012AA
:1016D000002AF5D12068143050E8001F21F04001A5
:1016E00040E80012002AF5D184F8423025632068D2
:1016F0000C3050E8001F21F0100140E80012002AD1
:10170000F5D1E06BFEF77EFF6663A08DE18D401A98
:1017100081B22AE0A08DE18D401A81B2E08D0028CF
:10172000A6D00029A4D022680C3252E8000F20F481
:10173000907042E80007002FF5D12068143050E87F
:10174000002F22F0010240E80027002FF5D184F895
:101750004230256320680C3050E8002F22F0100240
:1017600040E80023002BF5D166632046FFF7BDFE5D
:10177000F8BDFFE705062BD5150629D594F84100DD
:101780002128F5D1A068B0F5805F01D12069B0B102
:10179000206A411C2162216800784860E08C401E6C
:1017A0000004000CE084E3D12068C16821F08001CE
:1017B000C1602068C16841F04001C160D8E7206A7B
:1017C0000088C0F308004860206A801C2062E5E7BA
:1017D0004006CDD55006CBD5CA68204622F040023F
:1017E000CA6084F8413000F09FF9C1E78F1F0008FC
:1017F00070B5040004D094F84100002510B106E053
:10180000012070BD84F84050204600F023F82420C9
:1018100084F841002068C16821F40051C16020466D
:1018200000F0F0FC2068016921F49041016120681A
:10183000416921F02A0141612068C16841F40051E9
:10184000C1606564202084F8410084F8420065632B
:10185000002070BD2DE9F04385B000240094019470
:1018600002940394054603685A48DFF864C10221D4
:101870000322DFF86481061580274FF020096345B5
:1018800037D1836943F480438361836903F48043E0
:101890000493836943F0040383618069039200F039
:1018A000040004900802CDE9000169464046FFF7B4
:1018B0003DF8CDE90064694640460294FFF736F8EA
:1018C000474E4648C6E90004C6E902473461C6E906
:1018D00005493046F461FEF7B1FF08B1FEF790FE0E
:1018E000EE630022114625207562FFF781F925205D
:1018F00029E0DFF8F0C063452AD1C36943F400331F
:10190000C361C36903F400330493836943F00403A0
:1019100083618069039200F0040004900420CDE903
:10192000000169464046FFF701F80820CDE90004B0
:10193000694640460294FEF7F9FF00220221262064
:10194000FFF756F92620FFF745F905B0BDE8F0830B
:10195000DFF894C06345F8D1C36943F48023C361C1
:10196000C36903F480230493836943F0080383610C
:101970008069CDE9006100F00800CDE903201B4E2D
:1019800069463046FEF7D2FFF014CDE900046946FF
:1019900030460294FEF7CAFF114E104844362838EC
:1019A000C6E90004C6E902473461C6E90549304684
:1019B000F461FEF743FF08B1FEF722FEEE6300225A
:1019C000114627207562FFF713F92720BBE70000B7
:1019D0000038014000100240000801405800024059
:1019E000540100200044004000480040000C014029
:1019F00090F84230202B01D00220704721B11AB15B
:101A00000023036300F05ABC012070477047704701
:101A10002DE9F843044690F84100984616460D46D5
:101A2000202802D00220BDE8F88385B17EB10020D5
:101A30006064212084F84100FFF76EF8A684814697
:101A4000E684A0682027B0F5805F02D003E0012083
:101A5000E9E7206910B12E4600250EE000260CE0D3
:101A60008021204600F072FCA8B9C6B116F8010B1F
:101A700021684860E08C401EE084E08C4B464FF0CB
:101A80000002CDF800800028EAD14FF04001204646
:101A900000F05CFC40B184F841700320C3E735F8E6
:101AA000020BC0F30800E3E784F841700020BAE7B6
:101AB00070B5044690F84100202801D0022070BD86
:101AC00049B342B32162A284E284002060642123EE
:101AD00084F84130A56B114BAB62A56B104BEB62E8
:101AE000A56B104B2B63A36B5863256813462A1D07
:101AF000A06BFEF7D1FE21686FF0400008602068FF
:101B0000143050E8001F41F0800140E80012002A24
:101B1000F5D1002070BD012070BD00008D200008AF
:101B2000CF2000089F1F000800F002B87047FEE7B2
:101B300010B504460120FEF7E7FE094920688842F7
:101B400003D100F053F9012005E00649884206D18F
:101B500000F05CF90320BDE8104000F029BE10BD84
:101B6000003801400048004018B502681168C906F5
:101B700016D511685168134C009101231249A242F5
:101B80000FD1C06B006840684A8880B2C0F5807091
:101B900080B2904203D04A884A88C8800B7048803F
:101BA00018BD0A4CA242FBD1C06B006840688A880D
:101BB00080B2C0F5807080B2904201D008814B7035
:101BC000888018BD003801402000002000480040F7
:101BD000084A10B5126801681268914209D16FF085
:101BE00001020A61FFF75EFB034901200870034907
:101BF000087010BD30000020120000201B000020E3
:101C00000D4808B5416941F0010141614069002278
:101C100000F00100009011460D20FEF7E9FF0D20B5
:101C2000FEF7D8FF002211460F20FEF7E1FFBDE8C6
:101C300008400F20FEF7CEBF001002402DE9F04310
:101C400085B0002421480094019402940394816992
:101C500041F020018161816901F0200104918169D5
:101C600041F004018161816901F0040104918169FD
:101C700041F0080181618069DFF8548000F00800BC
:101C80000490002204214046FEF740FFDFF8449014
:101C90004FF48077002239464846FEF737FF04208C
:101CA00001250226CDE90005CDE9024669464046F8
:101CB000FEF73CFE00970396CDE90154694648467D
:101CC000FEF734FE05B0BDE8F083000000100240CE
:101CD000000C01400008014010B586B000241648F1
:101CE000009401940294039404944FF0804105946D
:101CF00001604721C0E901144FF6FF71C0E90314E8
:101D00008461FFF75DFA08B1FEF77AFC4FF480506A
:101D1000009069460848FFF7DDFA08B1FEF770FC4D
:101D2000049404A904480594FFF716FA002801D08A
:101D3000FEF766FC06B010BD340000200C4810B55C
:101D40000A4901604FF4E1314160002181600C22B9
:101D5000C160C0E904128161C161FFF749FD00283B
:101D600003D0BDE81040FEF74BBC10BD0038014069
:101D70007C0000200C4810B50A4901604FF4165150
:101D80004160002181600C22C160C0E904128161C0
:101D9000C161FFF72DFD002803D0BDE81040FEF71C
:101DA0002FBC10BD00440040C40000200C4810B5FA
:101DB0000A4901604FF416514160002181600C22F4
:101DC000C160C0E904128161C161FFF711FD002803
:101DD00003D0BDE81040FEF713BC10BD0048004022
:101DE0000C010020FEE7FEE77047000000224FF4E0
:101DF00080710148FEF78ABE0008014001221102ED
:101E00000148FEF783BE00000008014000220421C3
:101E10000148FEF77BBE0000000C014001220421B6
:101E20000148FEF773BE0000000C01407047FEF74A
:101E300079BE30B58FB028216846FEF7B1FA14217B
:101E40000AA8FEF7ADFA01210804CDE9001000242C
:101E5000029402250491CDE907504FF4E010099057
:101E60006846FEF7D3FF08B172B6FEE70F20CDE952
:101E70000A054FF48060CDE90C4002210AA80E94B7
:101E8000FEF7E8FE002801D072B6FEE70FB030BDC5
:101E90007047000010B50448FFF78BFABDE810400A
:101EA0000148FFF795BE000034000020F0B502683D
:101EB000194B1A4C1A4D4FF08047984205D0B84242
:101EC00003D0A04201D0A84203D122F070064A6894
:101ED0003243984205D0B84203D0A04201D0A84274
:101EE00003D122F44074CA6822434C6922F0800274
:101EF000224302608A68C2620A688262984201D103
:101F000009690163012141610169C90703D00169C0
:101F100021F001010161F0BD002C014000040040EE
:101F20000008004010B5846842EA032224F47F448C
:101F30000A432243826010BD826822F070020A4385
:101F400042F007018160704710B5036A046A24F00B
:101F500001040462846924F0F00444EA021423F0CA
:101F60000A020A438461026210BD10B5036A046A62
:101F700024F010040462846923F0A00324F4704464
:101F800044EA023243EA01118261016210BD10B5D8
:101F9000406A0021C185C184FFF7F2FA10BD70B517
:101FA000446A2068406994F84110C0F3C0100025CD
:101FB000212904D118B1E584204600F0B4F8206846
:101FC000406994F84210C0F38010222904D118B15E
:101FD000E585204600F080F8606C40F010006064F9
:101FE0002046FFF7CDFA70BD10B50146406A09687A
:101FF00009684FF0000289062ED4C28501680C31B1
:1020000051E8003F23F4807341E80034002CF5D1FF
:102010000168143151E8003F23F0010341E8003426
:10202000002CF5D10168143151E8003F23F0400342
:1020300041E80034002CF5D1202180F84210016BDA
:10204000012909D101680C3151E8003F23F0100348
:1020500041E80034002CF5D14263016B012902D024
:10206000FFF7D4FC10BD818DFFF73FFA10BD10B50E
:10207000406A01214163016B012902D0FFF7C7FCCF
:1020800010BD818D4908FFF730FA10BD10B501462B
:10209000406A09680968890616D40021C18401686C
:1020A000143151E8002F22F0800241E80023002B78
:1020B000F5D101680C3151E8002F42F0400241E8AF
:1020C0000023002BF5D110BDFFF72EFD10BD10B57C
:1020D000406AFFF72BFD10BD01680C3151E8002F5D
:1020E00022F4907241E80023002BF5D101681431ED
:1020F00051E8002F22F0010241E80023002BF5D126
:10210000016B012909D101680C3151E8002F22F03F
:10211000100241E80023002BF5D1202180F8421065
:1021200000210163704701680C3151E8002F22F053
:10213000C00241E80023002BF5D1202180F8411096
:10214000704708B590F84210222901D0022008BD3E
:1021500082684FF480539A4201D1016921B1816AAA
:102160009A421BD04AB10AE00268816A5268C2F3FF
:1021700008020A80816A891C08E0026972B102685B
:10218000526802F07F020A70816A491C8162C18D27
:10219000491E0904090CC18503D01BE0026852687E
:1021A000F1E70168CA6822F02002CA600168CA68C3
:1021B00022F48072CA6001684A6922F001024A6111
:1021C000202180F8421000214163026B012A03D0D4
:1021D000FFF71CFC002008BD016301680C3151E8C9
:1021E000002F22F0100241E80023002BF5D10168F6
:1021F0000A68D20602D50A6849680091818DFFF706
:1022000074F9E7E770B5044600680169E26821F4F3
:102210004051114301612169A06808436169084385
:102220002168CA6841F20C639A430243CA6020687D
:102230004169A26921F44071114341611E4920683E
:10224000884202D1FEF7ACFD01E0FEF799FD00EBFC
:10225000C00101EB0012606864218000B2FBF0F362
:10226000B3FBF1F36FF018067343B2FBF0F5B2FB6A
:10227000F0F605EB8305322303EB0515B5FBF1F50D
:10228000B6FBF1F605F0F00505EB0615B2FBF0F62E
:10229000B2FBF0F0B0FBF1F06FF01802504306EB28
:1022A000800003EB0010B0FBF1F0216800F00F009C
:1022B0002844886070BD00000038014038B5816254
:1022C00004468285002013466064222284F842205E
:1022D000E56B1B4AAA62E56B1A4AEA62E56B1A4A89
:1022E0002A63E26B50630A462168E06B091DFEF722
:1022F000D3FA2068016840680090206948B12068DE
:102300000C3050E8001F41F4807140E80012002AB0
:10231000F5D12068143050E8001F41F0010140E879
:102320000012002AF5D12068143050E8001F41F057
:10233000400140E80012002AF5D1002038BD00001D
:10234000E91F00086F2000089F1F00082DE9F843CF
:10235000984617460D460446089E24E0701C22D07D
:10236000FEF7DAFBA0EB0800B0421AD8CEB1206825
:10237000C168490717D5802D15D0402D13D00168AD
:10238000C94309070FD40168002540680090204622
:10239000FFF7A2FE0820606484F840500120BDE8E9
:1023A000F8830320FBE72068006835EA000004D0CA
:1023B0000020B842D2D00020F1E70120F9E7000068
:1023C00010B50448FFF7DEF8BDE810400148FFF7FC
:1023D000CBBB00007C0000200148FFF7D3B8000011
:1023E000C400002010B50448FFF7CCF8BDE8104049
:1023F0000148FFF7B9BB00000C010020FEE7090708
:10240000090E002804DB00F1E02080F8001470477A
:1024100000F00F0000F1E02080F8141D704700006C
:102420002DE9F041C1F30A52A2F2FF362F4A304B98
:102430000D460446142E2FDA002E12DA00F032FA7E
:102440000022134600F05CFC4CD2002DBCBF4FF0C4
:102450000045002446DB55EA040018BF254D19D17C
:1024600040E0DFF894C02CFA06F705EA070C5CEAB6
:10247000040C08BFBDE8F08100F014FA00221346F6
:1024800000F03EFC2ED2002D03DD4FF48010F04012
:102490000544BD43002425E0332EC8BFBDE8F081CC
:1024A000A6F1140C4FF0FF3727FA0CF73C4208BF97
:1024B000BDE8F08100F05AFC0022134600F020FC39
:1024C00010D2002D0DDD142E08BF6D1C09D0C6F1F1
:1024D0003400012101FA00F02044A04238BF6D1CF5
:1024E0000446BC4329462046BDE8F0819C7500881F
:1024F0003CE4377E0000F03FFFFF0F00054B10B5B6
:10250000187059605A7000F051F900F0BDF90020C0
:1025100010BD0000100000202DE9F047184D804646
:10252000924628788946D0B1164804880026771E3E
:10253000032C10D31448224601681448FDF7EBFE23
:10254000A01E81B2114800F0E7F810490A1932F8CC
:10255000022C904206D02E703846BDE8F0876FF00E
:102560000200FAE709480978401C88F80010E41EC8
:10257000C9F80000AAF800402E700020EDE7000026
:1025800020000020260000202C000020DC0200207B
:1025900070B5154D14462870681CFDF7BCFE641C10
:1025A000A1B2284600F0B8F82855641C000A285546
:1025B000641CA2B20D4C2946207800F021F90C4889
:1025C0006168B0FBF1F000F04EFA0022094B00F018
:1025D00099FAFFF725FF00F019FA00EB400000F030
:1025E0002BF9002070BD0000DC010020100000204D
:1025F0008096980000000C400248002201210078DB
:1026000000F0A2B81000002070B50D46074914462E
:1026100008704D704A608B701A462146284600F0BB
:10262000C5F800F031F9002070BD0000180000204E
:10263000024800220121407800F086B818000020EE
:10264000A6B0FEF777FAFFF7F4FBFFF7F7FAFFF70C
:10265000D7FAFFF773FBFFF78DFBFFF7A7FBFFF739
:102660003BFB4FF416540023224603210120FFF7C1
:10267000CBFFFFF7DDFF002221460120FFF73EFFE1
:10268000FFF7BAFF0024032502264FF47A7700BF34
:102690008DF888508DF889408DF88A408DF88B40F0
:1026A0008DF88C60052222A90220FFF771FFC82057
:1026B000FEF72AF921AA24A920A8FFF72DFF88B93F
:1026C000BDF884309DF8802008A16846FDF780FDA4
:1026D0006846FDF701FE82B24FF0FF3369460D48B0
:1026E000FFF796F93846FEF70FF9D1E74D6173749D
:1026F00065722072656365697665642066726F6DC8
:102700002025642C20706475206C656E3D25640D59
:102710000A000000C400002070B505464FF6FF70A7
:1027200000224AF201040CE0AB5C58400023C607CB
:102730004FEA500000D060405B1C082BF7DB521CB6
:1027400092B28A42F0D370BD10B51446012808D069
:10275000032825D1C1B1FFF759FB032000F028F869
:1027600015E029B1FFF742FB012000F021F802E05B
:102770000C48FEF7BBFE1CB1BDE81040FFF73EBBA6
:10278000BDE81040FFF732BB0748FEF7AFFE1CB1B3
:10279000BDE81040FFF742BBBDE81040FFF736BB75
:1027A00010BD00007C0000200C01002070470000DC
:1027B00038B54FF4807401280FD003280CD10C4891
:1027C000FEF794FE22460B490948FFF711F9084825
:1027D000006801684068009038BD0748FEF786FE33
:1027E000224606490448FFF703F90348F0E70000D2
:1027F0000C010020DC0400207C000020DC03002011
:1028000070B514460D4601280AD003280ED1FFF7F3
:1028100005FB074822462946BDE87040FFF748B946
:10282000FFF7ECFA224629460248F5E770BD0000A2
:102830000C0100207C000020AFF30080024611480C
:1028400030B4006801680B6A41F21114234207D1C9
:102850000B6AA410234203D10B6823F001030B6021
:102860000168CA62C2600268002151620268891E62
:1028700011610168CA6842F00102CA6030BCFEF70B
:10288000E9BC00003000002005496FF00100096834
:1028900009680861002205211C20FEF7A9B9000083
:1028A0003000002010B591EA030F48BF83F00043C9
:1028B00000F17082841A71EB030C05D2121943EBFC
:1028C0000C03001B61EB0C01DFF824E14FEA11540B
:1028D000A4EB135C1EEA430F18BF9EEA445F73D05B
:1028E00023EA0E03DCF1200E21EA045143F48013A5
:1028F00032D322FA0CFE10EB0E0023FA0CFE41EB51
:102900000E01CCF1200E03FA0EFE10EB0E0051F179
:102910000001B1F5801FCCF1200E32D201EB045141
:1029200012FA0EF2BDE8104058BF7047401C38BF85
:102930005FEA420218BF7047002814BF20F0010070
:1029400041F100014FEA410313F5001F38BF704702
:10295000A1F1C04100F0CEB9012A43EB0302ACF172
:10296000200CDCF11F0E32BF4FF0000E23FA0CF3E7
:1029700010EB030041EB0451B4EB115FD0D0A1EB9D
:10298000045101F5801149085FEA300001EB045160
:102990000ED350F1000038BF12FA0EFE08D1BDE888
:1029A0001040C9E7401C38BF5FEA4202CAD1C3E702
:1029B000BDE810404FEA410313F5001F38BF7047D0
:1029C000A1F1C04100F096B99EEA445F08D011EA37
:1029D0005E0FBDE8104004BF01F0004100207047C9
:1029E000BDE8104070B500F037F900BF64FBBE3E93
:1029F0000000E0FF491058BFC1F140415B1058BFD3
:102A0000C3F140438B42EFF3008070474FEA11530C
:102A1000A3F58063D3F11E03A8BFD3F1200C08DB1C
:102A20004FF0004242EAC12252EA505232FA03F019
:102A3000704709420BD4102BC4BF0020704703F528
:102A4000787CBCF1FF3F05D04FF0FF3070474FF06E
:102A50000000704770B500F0FFF800BF4992248075
:102A600000207047F0E7B0FA80F310FA03F10AD0C3
:102A7000C3F11D0303F580634FEA41504FEA03524F
:102A800002EBD12170474FF00000704751EA030C70
:102A900017D41CF5801F58BFBCF5801F00F10680BD
:102AA000994218BF704708BF9042704707D711F589
:102AB000801F58BF13F5801F19D49942704789426F
:102AC00070471CF5801F08D5BCF5801FF7D58B42D9
:102AD00018BF704708BF824270474FF4001C1CEBC0
:102AE000410F38BF1CEB430F01D28B42704770B5CA
:102AF00000F0B2F8922449004FF000514FF080539B
:102B0000FFF778BFDFF848C170B51CEA111E1EBF81
:102B10001CEA13159EEA0C0F95EA0C0F00F06F806B
:102B200081EA030423EA4C134EEAD47E21EA4C11D5
:102B300041F4801143F48013AE44A1FB024CA0FB8E
:102B40000365AEF17F7E361955EB0C05A1FB034CF6
:102B50004CF10003A0FB021C16EB0C06654153F17F
:102B60000003094218BF46F0010613F4007F0BD1A1
:102B70004FEA03314FEA0530340341EA155140EA88
:102B800016506FF003020AE04FEAC3214FEAC52056
:102B9000F40241EA555140EA56506FF0020202EB4E
:102BA0002E4201EB025585EACE710AD05FEA440C51
:102BB00018BF24F0004450F1000041F1000120EA68
:102BC000D47040F2FE7C624500D270BDA84214BFB2
:102BD0004FF080444FF04044002E08BF0024BEF167
:102BE000806FA8BFA1F1C041BDE8704080F2828033
:102BF0004FF0000001F1C04101F0004170479EEA32
:102C00000C0F0CEA131518BF95EA0C0F06D04FF005
:102C1000000081EA030E0EF0004170BD00F01CF8C8
:102C20008900013E00F007B800F009B84FEA430CF4
:102C30005FEA5C5C08D081EA030100F05BB84FEA10
:102C4000410C5FEA5C5CF6D14FF00000014970472F
:102C50000000FF070000F87F0EF1020E2EF0030EB9
:102C60005EF8046B364205D4012A43EB030515F5E3
:102C7000001F12D8012841EB010C1CF5001F0CD8D5
:102C80000ED14FEAD17C15F5001F0CEB4C0C0CF16A
:102C9000020C08BF4CEBD37C04E04FF0080C01E0C1
:102CA0004FEAD37C0CEB4C0526FA05F606F0070636
:102CB000B6F1040C06D20EEB860CBDE870404CF069
:102CC000010C6047DFE80CF0090B02024FF00041F5
:102CD0004FF00000A1F5002170BD194610460128F3
:102CE00051EB010418BFD4F5001484BF002001F09B
:102CF000004170BD0808A0F500114FEA310170478E
:102D000053EA010C17D41CF5801F58BFBCF5801F77
:102D100000F106808B4218BF704708BF824270479F
:102D200007D713F5801F58BF11F5801F19D48B42A8
:102D300070479B4270471CF5801F08D5BCF5801F6B
:102D4000F7D5994218BF704708BF904270474FF4BB
:102D5000001C1CEB430F38BF1CEB410F01D2994202
:102D600070470FB40CBC03BCFFF7C1BE91EA030F60
:102D700010B581F000413FF59DAD83F0004300F0B8
:102D800009B8000010B591EA030F48BF83F0004373
:102D90003FF590AD841A71EB030C07D212198CF039
:102DA000004C43EB0C03001B61EB0C01DFF8A4E1CA
:102DB0004FEA1154A4EB135C1EEA430F18BF9EEABE
:102DC000445F00F0B08023EA6E03524221EA0451CE
:102DD000C3EB6E0338BF5B1EDCF1200E25D322FA55
:102DE0000CFE10EB0E0043FA0CFE41EB0E01CCF191
:102DF000200E03FA0EFE10EB0E0051F10001CCF193
:102E0000200E29D412FA0EF201EB0451BDE8104055
:102E100058BF7047401C1CBFB2F1004F70470028DC
:102E20000CBF491C20F00100704712EB020E43EB6F
:102E3000030218BF4FF0010E4EEA4202ACF1200C23
:102E4000DCF11E0E54D943FA0CFE10EB0E0051F1CA
:102E5000FF31CCF11E0ED5D50EF1010E12FA0EFE89
:102E6000404141EB010101EB445C5FEA5C5C10D93D
:102E700010EBDE7001EB045138BFBEF1004FBDE82E
:102E8000104018BF704700280CBF491C20F00100FB
:102E9000704730D24FEAD42C11F5001124F40064AD
:102EA0001BD0B1FA81F20B3AA41AA41ED2F120036E
:102EB000914030FA03F31943904001EBCC71002CA0
:102EC00001EB0451BDE81040A8BF704701F1C041BB
:102ED0004FF0000001F000417047B0FA80F310FAA3
:102EE00003F100D110BDE41A173C4805C90AE4E714
:102EF00001EB045110BD491001EB0451BDE8104035
:102F00004FEA300002E04FF0000170474A0008BF6E
:102F10000042F8D0B2F5001F28BF704701F0004111
:102F20004FF0000070479EEA445F07D011EA5E0F41
:102F3000BDE8104004BF002100207047BDE81040EC
:102F400070B5FFF789FE00BF40DFF63E83F0004119
:102F5000104670470000E0FF010202030405060767
:102F600008090A0B0C0D0E0F1010000000000000E5
:102F70000000010203040607080900000000010226
:102F800003040000A42F000800000020340000000B
:102F900028010008D82F0008340000200C0C000085
:102FA00044010008010000001000000000000000C3
:102FB00000127A00010000008025000001030000DB
:102FC000802500000000000000000000000000005C
:082FD000DC03002034000020A6
:04000005080000ED02
:00000001FF
